:020000040800F2
:1000000000500020711600086F1600086D160008D9
:100010006D1600086D1600086D160008000000003F
:100020000000000000000000000000006F16000843
:100030006F160008000000006F1600081104000889
:100040006D1600086D1600086D1600086D16000884
:100050006D1600086D1600086D1600086D16000874
:100060006D1600086D1600086D1600086D16000864
:100070006D1600086D1600086D1600086D16000854
:100080006D1600086D1600086D1600086D16000844
:100090006D1600086D1600086D1600086D16000834
:1000A0006D1600086D1600086D1600086D16000824
:1000B0006D1600086D1600086D1600086D16000814
:1000C0006D1600086D1600086D1600086D16000804
:1000D0006D1600086D1600086D1600086D160008F4
:1000E0006D1600086D1600086D1600086D160008E4
:1000F0006D1600086D1600086D1600086D160008D4
:100100006D1600086D1600086D1600086D160008C3
:100110006D1600086D1600086D1600086D160008B3
:100120006D1600086D1600086D1600086D160008A3
:100130006D1600086D1600086D1600086D16000893
:100140006D1600086D1600086D1600086D16000883
:10015000F8B5214E04463378042B02D0072B38D053
:10016000F8BD00F08FFB1D4BB3F808181D46D1B940
:10017000D3F8010000F17843A3F50053B3F5783FBD
:1001800005D32046BDE8F840012200F0FDBB2B78E6
:10019000212B03D0412B17D100F0D2F9D5F8013033
:1001A000C5F8043810E0D3F80438023903EBC1274E
:1001B0000024B5F800389C4206DA084BE019195BB8
:1001C00000F08EF90234F4E700F06EFB0523337083
:1001D000F8BD01F08DFA00BF0000002020000020D3
:1001E00010B5094C4FF4417000F026FB2046032166
:1001F00000224FF4005300F0DFF92046BDE8104024
:100200004FF4005100F006BB0010014002484FF4CB
:10021000005100F005BB00BF00100140F8B50E46CC
:100220001D461446FFF7F2FF337803F07F03212BBE
:1002300052D17378013B052B4ED8DFE803F0034D14
:10024000241A4620264F0DB12B880BB906230EE049
:10025000F278B378234843EA0223A0F808382B88C1
:100260002168A0F800382A8801F04AFA03233B707D
:1002700034E01B4B1A780A2A30D1022201E0184BD5
:1002800002221A702AE0164A2068117800230329F6
:1002900004D0062906D10721117003E00421117052
:1002A000642100E0194603702068127841702168CB
:1002B0008B702168CB7021680A7122685371062304
:1002C0002B80094A069B1A6008E0054A23681278C9
:1002D00001201A702880F8BD0020F8BD0120F8BD6B
:1002E00000000020200000205101000808B540F265
:1002F000023000F0A1FA02224FF48073134800216B
:1003000000F05AF911484FF4807100F083FA4FF46D
:1003100080710E4800F081FA01460C4851B9012263
:100320004FF4807300F048F940F2023000F091FA87
:10033000012008BD002101224FF4807300F03CF938
:1003400040F2023000F085FA002008BD00080140AC
:100350001FB5FFF7CBFF80B9224A234B11680B4032
:10036000B3F1005F09D1214B4FF4005119601368BC
:1003700083F308881E4B1B68984700F003FA4FF47C
:10038000237000F059FAFFF72BFF1A484E23037031
:1003900053234370452383705223C3704923037151
:1003A000412343714C2383712023C37119210830E9
:1003B00000F05CF8042300930F4B104901934FF4B5
:1003C000006302930E4A0F4B0F4800F07BFA212185
:1003D0007F220E4B044600F076FB204600F09EFA8A
:1003E000FBE700BF002000080000FE2F08ED00E042
:1003F000042000082C0800205409002028170008B9
:100400004F17000804000020481800081D020008CB
:1004100010B50C4C2368012B04D10B484FF400514C
:1004200000F0F8F923680A2B04D107484FF4005173
:1004300000F0EEF92368034A0133142B08BF0023B0
:10044000136010BD5008002000100140044B1B68D1
:100450000360044B1B684360034B1B688360704759
:10046000F0F7FF1FECF7FF1FE8F7FF1F30B50C4652
:1004700085B0054601A8FFF7E9FF182C94BF04F1E9
:10048000FF31182100238B420FDA04AA02EB63022A
:1004900012F80C2C07481409045D02F00F02825C6C
:1004A000EC54EC1862700233EDE700236B5405B096
:1004B00030BD00BFD4170008064B1868064B1B68F8
:1004C000B3F5007F82BF054B1B68184300F0350071
:1004D000704700BF0C200240E0F7FF1F4C20024095
:1004E00038B504460D4600F0E7F9114B1B68B3F52B
:1004F000007F04D90F4B9C4201D90F4A00E00F4AFC
:10050000136843F001031360258000F0D5F9084B10
:100510001B68B3F5007F04D9064B9C4201D9064AFB
:1005200000E0064A136823F00103136038BD00BFE2
:10053000E0F7FF1FFFFF0708502002401020024095
:1005400010B5044600F0B8F9154B1B68B3F5007FF1
:1005500009D9144B9C4206D9134B1A6842F0020287
:100560001A60124A05E0124B1A6842F002021A6041
:10057000104A14601A6842F040021A6000F09CF9B8
:10058000074B1B68B3F5007F04D9064B9C4201D989
:10059000054A00E0064A136823F00203136010BD09
:1005A000E0F7FF1FFFFF07085020024054200240E1
:1005B00010200240142002402DE9F0414FF6E07770
:1005C00096469C460268436800254CFA05F4E40709
:1005D0001BD5072DACB28BBF3C4616461E46A40069
:1005E00098BFA4B24FF00F0808FA04F826EA0806EC
:1005F00004F102080EFA08F801FA04F448EA0404C7
:100600003443082D2CBF2346224601350437102DD4
:10061000BFB2DAD102604360BDE8F081024A1368DC
:1006200043F080731360704700100240062827D8FB
:10063000DFE800F004090E13181D2200114B1B689F
:100640009901FBD570470F4B1B681A01FBD570470A
:100650000C4B1B689B00FBD570470A4B1B6898032B
:10066000FBD57047074B1B689907FBD57047064BB6
:100670001B689A07FBD57047044B1B689B07FBD58B
:10068000704700BF001002402010024024100240BA
:1006900006281FD8DFE800F004060B101517190014
:1006A000FFF7BCBF0C4A136843F0806311E00A4AAD
:1006B000136843F080530CE0074A136843F4803317
:1006C00007E0054A02E0054A00E0054A136843F0E6
:1006D00001031360704700BF001002402010024069
:1006E00024100240034A136823F0030318431060E8
:1006F000704700BF04100240034A136823F47013CC
:1007000043EA80401060704704100240034A1368B7
:1007100023F4803343EA0040106070470410024025
:10072000034A136823F4003343EA404010607047E3
:1007300004100240034A136823F4404343EA803024
:100740001060704704100240034A136823F460539A
:1007500043EAC0201060704704100240034A136847
:1007600023F4E06343EA0020106070470410024065
:10077000034A136823F0F00343EA00101060704747
:100780000410024008B50420FFF782FF0420FFF7A1
:100790004DFF0020FFF7A6FF0320FFF779FF03209E
:1007A000FFF744FF0120FFF79DFF0020FFF7E0FF68
:1007B0000320FFF7BFFF0420FFF7D0FF0020FFF763
:1007C000C3FF022000F054F80720FFF795FF012037
:1007D000FFF79CFF0020FFF7A3FFFFF71FFF00209C
:1007E000FFF724FF0220FFF77DFF044B044A054971
:1007F0001360054A1160054A136008BD00A24A044F
:100800001400002000512502180000201C000020C8
:1008100001617047090401617047806808407047B2
:10082000C26821EA0203114043EA014101617047B5
:100830000368194301607047430903F1804303F5DE
:100840000433196800F01F00012282400A431A6035
:100850007047430903F1804303F50433196800F03E
:100860001F000122824021EA02021A607047000044
:10087000034A136823F0070318431060704700BF52
:1008800000200240054A136843F080031360044BC4
:10089000044A1A6002F188321A6070471020024040
:1008A0000420024023016745024A136843F0800395
:1008B000136070471020024008B5FFF7FDFDC30725
:1008C000FBD408BD2DE9F0411E4603680546884665
:1008D00017469847069BC0F8D850C360079BC0F8DE
:1008E00000800361BDF8203047608382084B86603A
:1008F000C366084B8366084B43660023C0F8C430C8
:10090000C0F8C830C0F8CC30C0F8D030BDE8F081B5
:10091000ED0A0008470B0008CD0B0008D0F8D830CE
:100920005B6A184710B5D0F8D840A468A446BDE863
:100930001040604737B50446002503688575C575C6
:10094000DB7929462A460095FFF7ECFFD4F8D8302A
:1009500020465B6829469847E3691BB103B0BDE8B0
:100960003040184703B030BD10B5D0F8D840E46926
:10097000A446BDE81040604710B5D0F8D840246ABE
:10098000A446BDE810406047D0F8D8301B6918472E
:10099000D0F8D8309B69184710B5044600210122D1
:1009A000FFF7F2FF002384F82C3010BD38B5036840
:1009B000828FC58EDB79AD1A9D42A8BF1D46836B21
:1009C000ADB21A4400212B460446FFF7D5FFA842DA
:1009D00005D02046FFF7E0FF4FF0FF3038BDA38F72
:1009E0000344A38738BD38B503680446DD79838F97
:1009F00000219D42826B0FD22B46FFF7B5FF0223E9
:100A0000226884F82C30D379A16B0B44A363D2798C
:100A1000A38F9B1AA38738BDFFF7A6FF032384F893
:100A20002C300023A387A36338BD2DE9F34104468E
:100A30000E4600F1440500F164082F6857B92046BE
:100A4000314604F1380204F13C0302B0BDE8F04144
:100A500000F012BB697933782A790B409A420BD1A6
:100A600004F1400300932046314604F1380204F1BA
:100A70003C03B847012803D908354545DDD1DEE7F9
:100A800002B0BDE8F08110B50369044683638B7939
:100A9000CA7943EA02238387FFF7C7FF70B1A18FAA
:100AA000204619B1BDE81040FFF79DBF0B460A462E
:100AB000FFF75AFF042384F82C3010BD2046BDE810
:100AC0001040FFF769BF70B5002600EBC6056C6CDF
:100AD0002CB10136042EF8D14FF0FF3070BD85F8EF
:100AE000481085F849206B64204670BD70B500F150
:100AF0003006002505642946324608230446FFF7E0
:100B00003BFF082804D02046BDE87040FFF744BFF3
:100B1000E38E1BB194F93020002A05DA20463146D5
:100B2000BDE87040FFF7AFBFA28A9A42EBD32269BB
:100B3000A587A2632268D2799A4234BF052306238F
:100B400084F82C3070BD90F82C3010B5062B04467C
:100B500010D0072B24D0052B33D1FFF727FF002817
:100B600033DBA28FE38E9B1A2268D27993422CDC6E
:100B7000062310E0FFF71AFF002826DB204604F1C9
:100B80003001FFF752FF48B100210B4620460A46CC
:100B9000FFF7EAFE042384F82C3010BD204610E055
:100BA00000210B460A46FFF7E7FE002384F82C30AD
:100BB000236C1BB1204604F13001984700232364C5
:100BC00010BDBDE81040FFF7E7BE10BD90F82C3017
:100BD00010B5032B044607D0042B07D0022B1CD1E1
:100BE000BDE81040FFF7FFBE072313E0036C13B10D
:100BF00000F13001984794F8303053B994F831300F
:100C0000052B06D1D4F8D830618E5B682046C9B276
:100C10009847002384F82C3010BDBDE81040FFF742
:100C2000BBBE1988012984BF012119801368C27DC8
:100C300001201A70704730B5C57D0D246C434068A3
:100C40000D3C20448D880479A5420CD201241C80DF
:100C50008B88D0F809001B011B58126803B11B7860
:100C60001370012030BD002030BD198801200229F9
:100C700084BF02211980116800230B701268537021
:100C8000704719880120022984BF02211980116848
:100C900000230B7012685370704738B514461A88D9
:100CA0002568022A84BF02221A808988C9B2FFF708
:100CB0006FFE003018BF01202870236800225A7090
:100CC000012038BD08B589880122C9B2FFF75CFE52
:100CD000012008BD08B589880022C9B2FFF754FE7B
:100CE000012008BD10B50B786BB94C887F2C0AD851
:100CF000D0F8D830847593F8302032B149885B68D9
:100D0000C9B2984701E0002010BD012010BDF8B520
:100D10004B88C27D04469A420E4618D0C375D0F85F
:100D2000D830DB689847D4F8C43083B100236364BB
:100D3000E3646365E36504F1C00504F1D00755F889
:100D4000043F13B1204671889847BD42F7D1012076
:100D5000F8BD70B51D46C37D0D225A4343680D3A58
:100D60001A440C46137989888B4216D9D2F8096047
:100D70000A01B1186388097999420ED9B2580AB1AB
:100D8000137000E04BB9D0F8D43013B1A188628859
:100D9000984700232B80012070BD002070BD2DE9F5
:100DA000F04F0546488889B0C6B2000A022890462E
:100DB0001F460FD0032800F0E180012840F01A817F
:100DC0002B6813602B683A881B78934228BF134620
:100DD0003B8010E12B693C88136001930D235E4337
:100DE000D5F80480019818F8065008EB0603A542D0
:100DF00028BF254619462A46029300F081FC019B34
:100E0000641B18F806602B44A4B200220492029AD4
:100E10001179BDF81020914240F2AC801201069287
:100E2000029A0699D2F809200A44D2F80890B9F13A
:100E3000000F14D099F800801846A04528BFA0469E
:100E40004946424600F05CFC034699F80020C8EB96
:100E50000404454416444344A4B2ADB2B6B20022E1
:100E60000392029AD2F80910069A11440879BDF843
:100E70000C2090427BD94FF0150909FB02F9D1F8FB
:100E80000CB018461BF809800BEB090AA04528BFD7
:100E9000A0465146424600F033FC03461BF80920A9
:100EA000DAF80D10C8EB0404454416444344A4B2D8
:100EB000ADB2B6B2A9B1DAF811801846A045A8BF04
:100EC000A0461FFA88F8424600F01AFC0346DAF8FA
:100ED0001120C8EB0404454416444344A4B2ADB207
:100EE000B6B200220592BDF814909AF804204A4543
:100EF0003AD9DAF809C0C9EB09191CF809800CEBDA
:100F0000090BA04528BFA046184659464246CDF8D1
:100F10001CC000F0F5FB0346DDF81CC0DBF8071031
:100F20001CF80920C8EB0404454416444344A4B209
:100F3000ADB2B6B2A9B1DBF80B801846A045A8BF88
:100F4000A0461FFA88F8424600F0DAFB0346DBF8B9
:100F50000B20C8EB0404454416444344A4B2ADB28C
:100F6000B6B2059A0132BDE7039A013278E7049AD6
:100F700001324BE7019B5E803D8039E02C6956B918
:100F80000923A3700423E37023703B88042B28BF3C
:100F900004233B8028E0A868013E60B3EB689E42D2
:100FA00028DA40F209438A889A4223D150F8260071
:100FB00000F0B1FB01304000C0B220703B884FEA26
:100FC0008609984228BF1846002238803B885B0873
:100FD000013B9A4208DAAB6853F80930995C04EB9C
:100FE000420359800132F1E703236370C8F80040DF
:100FF000012000E0002009B0BDE8F08F30B54C784A
:10100000092C07D8044D55F824401CB1A446BDE86E
:1010100030406047002030BDE817000830B54C78FC
:101020000B2C07D8044D55F824401CB1A446BDE84C
:1010300030406047002030BD1018000810B54C78D3
:10104000012C03D00AD3032C04D00CE04C8854B9F3
:10105000064C04E04C8834B9054C00E0054CA4462D
:10106000BDE810406047002010BD00BFD50C00084F
:10107000C50C00089B0C000810B50C7814F0600F2C
:1010800012D104F01F04012C0AD005D3022C0BD17D
:10109000BDE81040FFF7D2BFBDE81040FFF7AEBF7C
:1010A000BDE81040FFF7BABF002010BD024B41F071
:1010B00080011960704700BF4C5C00400E4A40F64A
:1010C0003F7311680B4043F4004343F08003136007
:1010D00043F60F7311680B4043F4004343F0800361
:1010E00042F8043B054B9A42E9D10368DB7920338F
:1010F0005B000383704700BF045C0040205C00403D
:1011000030B5C9B9354B10241B68012023F4E043E6
:1011100023F040039BB2002A0CBF20251025054276
:1011200018BF43404000013C80B2F4D143F4004377
:101130002A4843F0800303600B0624D501F07F01A9
:10114000890001F1804101F5B8410B68102423F4B6
:10115000E04323F040039BB20120002A0CBF20256E
:101160001025054218BF43404000013C80B2F4D135
:1011700043F4004343F080030B606ABB48F6CF732F
:101180000A68134027E0890042B94CF68F7001F1DC
:10119000804303F5B8431C682040186001F180418A
:1011A00001F5B8410B68102423F4804323F0700349
:1011B0009BB20120002A14BF4FF480554FF44055D4
:1011C000054218BF43404000013C80B2F2D143F4D5
:1011D000004343F080030B6030BD00BF005C004063
:1011E0000B060BD501F07F01890001F1804101F56B
:1011F000B841086800F03000102809E0890001F1CA
:10120000804101F5B841086800F44050B0F5805FB6
:1012100014BF00200120704701F07F01880000F119
:10122000804000F5B840F0B5046804F03004302C7C
:101230003DD0204EC9003468A4B20C4404F10054DF
:1012400004F54054640025685C1CADB26D00641068
:1012500005EB840405F1804704F1804407F5C0479D
:1012600004F5C044A74204D032F8025B27F8045BBF
:10127000F8E73268102492B211440F4A0A4452002F
:1012800013600268012122F4E04222F0400292B28F
:1012900011F0300F18BF4A404900013C89B2F7D124
:1012A00042F4004242F0800202601846F0BD002085
:1012B000F0BD00BF505C0040023000202DE9F0413D
:1012C0008C0004F1804404F5B844206800F44050D8
:1012D000B0F5405F57D02F4ECD0037682E48BFB2D3
:1012E0002F44384440000068C0F30900984208DAEF
:1012F0003068294B80B2284403445B001B68C3F369
:10130000090330685E0880B20544244896462844A4
:1013100040000068354680B2400000F1804000F592
:10132000C040074603F0010C35B137F8048B013D8E
:101330002EF8028BADB2F7E7BCF1000F03D010F826
:10134000260002F8160040F60F722068024042F0B4
:1013500080022260124A525CC2B92268102022F434
:10136000804222F0700292B2012111F4405F18BF56
:101370004A404900013889B2F7D142F4004242F0B4
:101380008002226002E00020BDE8F0811846BDE83E
:10139000F08100BF505C0040063000200430002087
:1013A0004C090020F8B52F4F054639683C468EB2EF
:1013B00016F4806F07D040230383FFF7BBFA4FF684
:1013C000FF333B60F8BD080432D501F00F0116F081
:1013D00010034FEA810209D002F1804303F5B843BC
:1013E0001B68C3F3C0230133DBB20CE040F60F707F
:1013F00002F1804707F5B847D7F800E00EEA000091
:1014000040F40040386001EB4100034405EB8303E6
:101410005B6E13B1284698470AE002F1804340F61C
:101420000F7203F5B84319680A4042F080021A604F
:10143000310505D54FF2FF7323602B6A03B198473E
:10144000F20405D54EF6FF7323606B6A03B198472B
:10145000B30505D5AB6A03B198474FF6FF53236038
:10146000F8BD00BF445C004008B508484FF40001D7
:10147000FFF7DEF9064A0749002313600B6041F8C5
:101480000C3C4FF41C431360034808BD1C10024081
:10149000405C0040505C0040540800202DE9F743B8
:1014A0000F466E46574904460868496827F07F088A
:1014B00003C607F07F01880000F1804000F5B840C6
:1014C00006680A9D26F4E04626F07F060E43B6B273
:1014D000066048F68F16076808F0FF0C3E4002AF22
:1014E00007EB420232F8082CDFF824E132430260B5
:1014F000CF00B8F1000F1AD1C9B1DEF80020268B59
:101500001FFA82FC404ABC44624452003E2B1660E3
:101510001A4644D913F01F0F18BFA3F120026FEA37
:1015200082526FEA5242DEF800E092B23EE0DEF80C
:101530000020268B92B23A4402F1005202F540524A
:10154000520016601DB10C2202FB0142556648F69E
:10155000CF72D0F800804FF0100908EA0202026052
:1015600002684FF0010822F4E04222F0400292B2F9
:1015700018F0200F18BF88EA02024FEA4808B9F1B4
:1015800001091FFA88F8F3D142F4004242F08002C8
:101590001E4402602683BCF1000F2FD1ADE713F08B
:1015A000010F18BF5A1CDEF800E092021FFA8EFEEF
:1015B000BE44164F77447F003A601DB10C2202FBF7
:1015C00001418D664CF68F72016810250A40026059
:1015D0000268012122F4804222F0700292B211F4DA
:1015E000405F18BF4A404900013D89B2F7D142F43B
:1015F000004242F0800233440260238303B0BDE81E
:10160000F08300BF4018000804300020063000209E
:10161000505C00400B0626D4134B10205A5489000E
:1016200001F1804101F5B8410B6823F4804323F0B8
:1016300070039BB24AB1012212F4005F18BF5340FD
:101640005200013892B2F7D108E0012212F4405F53
:1016500018BF53405200013892B2F7D143F400430F
:1016600043F080030B6070474C090020FEE7704791
:101670000022154915485318834204D2144BD358FD
:1016800053500432F5E7134A934203D200221A6002
:101690000433F8E7104C114B9C4203D254F8043B3E
:1016A0009847F8E70E4C0F4B9C4203D254F8043B8A
:1016B0009847F8E7FEF74CFE0B4C0C4B9C4203D2CC
:1016C00054F8043B9847F8E7000000202000002071
:1016D0007C180008541100207C1800087C180008B1
:1016E0007C1800087C1800087C1800087C1800088A
:1016F000014A024B1A60FEE70400FA050CED00E017
:1017000010B5431E0A44914204D011F8014B03F86E
:10171000014FF8E710BD034613F8012B002AFBD157
:10172000181A013870470000120100020000004042
:10173000501D0F600001010203010904000000FEBA
:10174000010204000000006C1700080900000009F5
:10175000020000010100C0325C1700080000000018
:1017600001000000000000003A170008092109FFED
:101770000000081A015472616E736974696F6E20FB
:10178000526F626F7469637320496E632E004C69F7
:1017900073612F4D2028557067726164652920564A
:1017A000312E310040496E7465726E616C20466C5A
:1017B0006173682020202F3078303830303030305E
:1017C000302F342A3030324B612C3132342A3030D1
:1017D000324B670030313233343536373839414295
:1017E00043444546000000006B0C00080000000068
:1017F000000000000000000000000000E50C0008F0
:101800009F0D000800000000230C00080F0D0008C9
:10181000830C000800000000000000000000000031
:1018200000000000000000000000000000000000B8
:101830000000000000000000370C0008530D0008F5
:10184000000200040000000669140008AD10000842
:101850009D140008BD1000080111000815160008AD
:10186000E111000819120008BD120008A5130008B4
:0C1870000000000000000000000000006C
:10187C0002000000751700088E1700082C080020C5
:10188C00A417000800127A0000127A0000127A00E5
:040000050800167168
:00000001FF
